:020000040800F2
:10000000A04B0120410300085D5C0008515200082C
:10001000595C0008791E00082781000800000000D4
:10002000000000000000000000000000890200083D
:10003000273D000800000000DD020008A978000844
:100040005B0300085B0300085B0300085B03000818
:100050005B0300085B0300085B0300085B03000808
:100060005B0300085B0300085B0300085B030008F8
:100070005B0300085B0300085B0300085B030008E8
:100080005B0300085B0300085B03000841230008D2
:10009000A51F00085B0300085B030008554100082A
:1000A0005B0300085B0300085B0300085B030008B8
:1000B0005B0300085B0300085B0300085B030008A8
:1000C0005B0300085B0300085B0300085B03000898
:1000D0005B030008E57C00085B0300086D7D0008F9
:1000E0005B0300085B0300085B0300085B03000878
:1000F0005B0300085B0300085B0300085B03000868
:100100005B0300085B0300085B0300085B03000857
:100110005B0300085B030008217900085B0300080B
:100120005B0300085B0300085B0300085B03000837
:100130005B0300085B0300085B030008A9260008B6
:10014000F52500085B0300085B0300085B0300085B
:100150005B030008A9370008D9370008F57D0008BF
:100160005B0300085B0300085B0300085B030008F7
:100170005B0300085B0300085B0300085B030008E7
:100180005B0300085B03000800F002F800F06CF865
:100190000AA090E8000C82448344AAF10107DA45E2
:1001A00001D100F061F8AFF2090EBAE80F0013F0C8
:1001B000010F18BFFB1A43F00103184700D40000D9
:1001C00020D400000A444FF0000C10F8013B13F05B
:1001D000070408BF10F8014B1D1108BF10F8015BA0
:1001E000641E05D010F8016B641E01F8016BF9D193
:1001F00013F0080F1EBF10F8014BAD1C0C1B09D1EA
:100200006D1E58BF01F801CBFAD505E014F8016B5B
:1002100001F8016B6D1EF9D59142D6D370470000ED
:100220000023002400250026103A28BF78C1FBD8FF
:10023000520728BF30C148BF0B60704766290CF0D9
:10024000E686642900F0B280002070471FB50CF0EC
:10025000D4FE00F0CBFC0400002000210CF034F8A8
:10026000E0601FBD10B510BD00F0C4FD1146FFF7E2
:10027000EDFF09F0C7FC00F0E2FD03B4FFF7F2FF69
:1002800003BC09F0F8F800002A4B19680868B0E8C8
:10029000F04F80F30988BFF36F8F4FF0000080F3B9
:1002A000118870470000000006480068006880F36D
:1002B000088862B661B6BFF34F8FBFF36F8F00DF60
:1002C00000BF00BF08ED00E0DFF80C00016841F45A
:1002D00070010160704700BF88ED00E0EFF3098016
:1002E000BFF36F8F134B1A681EF0100F08BF20ED7D
:1002F000108A20E9F04F106008B44FF0500080F3EE
:100300001188BFF34F8FBFF36F8F0AF0EFFF4FF0ED
:10031000000080F3118808BC19680868B0E8F04F45
:100320001EF0100F08BFB0EC108A80F30988BFF3ED
:100330006F8F704720010020EFF3058070470000A9
:100340000948804709480047FEE7FEE7FEE7FEE769
:10035000FEE7FEE7FEE7FEE7FEE7FEE704480549A5
:10036000054A064B70470000B9780008890100086B
:10037000A0450120A04B0120A0470120A04701205B
:10038000704700000FB41CB5074B06AA7B446946B2
:100390000090059800F0DFFB0020694600F0EEFBBE
:1003A0001CBC5DF814FB0000ED0700002DE9F041D6
:1003B0000646002410687529314616A510D0AFF303
:1003C0000080002802DA404213A507E031688A075E
:1003D00001D512A502E0490704D511A5012401E0C9
:1003E000AFF3008000210A2206F1240709E0B0FBE8
:1003F000F2FCB0FBF2F302FB1C00303078541846DC
:10040000491C0028F3D123462A463046BDE8F04176
:1004100000F034B9000000002D0000002B000000A7
:10042000200000002DE9F0474FF0000A89460446FD
:10043000C0F820A02046E1688847002876D025280B
:1004400006D0D4E901219047206A401C2062F1E7E0
:10045000E168204600258847C4F81CA0064600270E
:10046000C4F818A02A2E09D0304608F0FDFF38B392
:1004700004EB8708303EC8F8186019E059F8041BEF
:10048000204604EB87029161E1688847012F064608
:1004900018D1E069002820DA25F020051DE0D8F801
:1004A000180000EB800006EB40003038C8F8180058
:1004B0002046E1688847064608F0D6FF0028EED1BE
:1004C000012F0AD02E2E08D12046E16888477F1CD4
:1004D0000646022F45F02005C4DBA069002803DA98
:1004E000404245F00105A061E80701D025F0100564
:1004F000B6B1A6F14100192802D8203645F40065AE
:100500004A463146204625604D46FFF797FE58B1D2
:10051000012806D0ED1D25F0070000F1080989E744
:1005200004E005F1040985E730468AE7206ABDE862
:10053000F087032A40F2308010F0030C00F01580A1
:1005400011F8013BBCF1020F624498BF11F801CBD6
:1005500000F8013B38BF11F8013BA2F1040298BF3B
:1005600000F801CB38BF00F8013B11F0030300F0A5
:100570000A83083AC0F0088051F8043B083A51F861
:1005800004CBA0E80810F5E7121D5CBF51F8043B4E
:1005900040F8043BAFF30080D20724BF11F8013BC1
:1005A00011F801CB48BF11F8012B24BF00F8013B23
:1005B00000F801CB48BF00F8012B704702F0FF03A1
:1005C00043EA032242EA024200F002B84FF000027E
:1005D0000429C0F0128010F0030C00F01B80CCF155
:1005E000040CBCF1020F18BF00F8012BA8BF20F8C3
:1005F000022BA1EB0C0100F00DB85FEAC17C24BF17
:1006000000F8012B00F8012B48BF00F8012B7047C0
:100610004FF0000200B5134694469646203922BF9B
:10062000A0E80C50A0E80C50B1F12001BFF4F7AFE6
:10063000090728BFA0E80C5048BF0CC05DF804EBC8
:10064000890028BF40F8042B08BF704748BF20F836
:10065000022B11F0804F18BF00F8012B7047704734
:1006600070477047704710B500F0C4FA006810BDBD
:1006700010B5044600F0BEFA046010BD2DE9F04745
:100680000D4699469246044600F124080168880602
:1006900004D5E06921F01001216000E00120A842AA
:1006A00001DD471B00E00027A1697A1902EB090070
:1006B000081AA0612078C00602D42046AFF300805B
:1006C000002608E0D4E901211AF806009047206AC4
:1006D000401C761C20624E45F4DB2078C0060AD50B
:1006E0002046AFF3008006E0D4E901213020904796
:1006F000206A401C2062381EA7F10107F4DC07E0E5
:10070000D4E9012118F805009047206A401C2062B6
:10071000281EA5F10105F3DC2046AFF30080207808
:10072000000602D50220BDE8F0870120FBE77047F4
:100730002DE9FF4F0C461E464FF0FF378BB0D2E934
:100740000001DDF860800A908A46C1F30A5505B9B8
:100750003D46002108464FF00000BAF1000F00F4BA
:10076000400005DA00EB80004FF4400101EA500040
:100770004FEA9059B9F1010F00DDB9460A9850EAE5
:100780004A000ED044F61050A5F2FF3545432F1411
:10079000B8F1000F1ED07542291E1EDDC9F10002FE
:1007A0001CE0B8F1010F4FF0000001D0302103E050
:1007B000F24305E02154401CB042FBDB30460022EE
:1007C000002121540B99C1F80880C1E900200FB025
:1007D000BDE8F08FBD1B6D1CDEE74A4600DA6942BA
:1007E00006A800F091FA06AB93E8070003AB83E894
:1007F000070050460A9900F06BFB8DE80700A0F552
:1008000000501F3800900398002D0ADD42F21F01AE
:100810004A460844002303A90390684600F0D4FD2B
:1008200009E0A0F500504A461F38002303A90390B1
:10083000684600F0DEFD8DE807000004000C03D0E0
:100840004FF0FF30410800E01046B8F1000F03D030
:100850000022009215461EE0751E05D400F0CEF968
:10086000303262556D1EF9D5B3460122084302D0DD
:1008700000227F1C04E02078302801D100227F1E56
:10088000002A099784D01DE0112D07DA00F0B6F98F
:10089000303262556D1C50EA0102F5D1084302D096
:1008A0000098C8B10EE00021681E05E0235C625C80
:1008B00063542254401E491C8142F7DBAB46A81BFF
:1008C000401E0990002004F80B000B98099AC0F80C
:1008D0000880C0E9002B7AE711264FF0000857E79F
:1008E0002DE9F04F88460446D21D22F0070191B051
:1008F000D1E90001CDE90A0107F050FC02460B984E
:10090000C00F01D02D2007E02068810701D52B20E2
:1009100002E0202101EAC000032A099001D0072A41
:1009200005DB03464146204600F0AEF90BE1207896
:10093000800601D5E06900E00620B8F1650F814628
:1009400006D0B8F1660F18D0B8F1670F70D131E05A
:100950000020B9F1110F009001DB112301E009F132
:1009600001030AAA01A90CA8FFF7E2FEDDE90C7059
:10097000002609F10105834647E001204B4600901F
:100980004FF000470AAA01A90CA8FFF7D1FEDDE944
:100990000DB00C995D46002610B909F101000D1843
:1009A000B9EB050003D4C0F1FF3609F10105A5EB51
:1009B00009002BE0B9F1010F01DA4FF00109002025
:1009C000B9F1110F0090484601DD112300E0034604
:1009D0000AAA01A90CA8FFF7ABFEDDE90C704D4691
:1009E00000268346207800070AD4AB4500DA5D462E
:1009F00001A8012D04DD411911F8011C302907D08F
:100A00004F4502DA17F1040F04DA012082460FE0A5
:100A10006D1EEEE7002F02DCED1B3E4403E0781C68
:100A2000A84200DD7D1CB81B00F1010A4FF0004711
:100A30002078000703D4AA4501DB4FF0FF3A0021DC
:100A4000B7F1004F0DF143088DF8431024D0022078
:100A50002B23002F01DA7F422D230A21021EA0F151
:100A6000010000DC5FB197FBF1FC97FBF1F201FBA9
:100A70001C7C17460CF1300C08F801CDEEE7A8F10C
:100A8000010003702188090501D5452100E0652199
:100A9000A0F1010800F8011C09980FA9A1EB0807B3
:100AA000FF1D00B10120411901EBEA70A169384432
:100AB000081A401EA0612078C00602D42046AFF379
:100AC0000080099828B1D4E901219047206A401C90
:100AD00020622078C00622D52046AFF300801EE0B9
:100AE000002E04DBB34502DD01A8805D00E030206C
:100AF000D4E901219047206A401C2062761CAAF1AB
:100B000001005FEA000A0AD100F070F8C0680168CD
:100B1000405CD4E901219047206A401C2062281ED5
:100B2000A5F10105DCDC07E0D4E9012118F8010B8F
:100B30009047206A401C2062381EA7F10107F3DCB1
:100B40002046AFF30080032011B041E601694A1C42
:100B500002610878704700B58FB0CDE901310021FE
:100B6000059105497944CDE9031011466846FFF720
:100B700059FC0FB000BD0000E5FFFFFF0A6802F856
:100B8000010B0A60704710B5203AC0F00B80B1E845
:100B90001850203AA0E81850B1E81850A0E81850B2
:100BA000BFF4F5AF5FEA027C24BFB1E81850A0E8BB
:100BB000185044BF18C918C0BDE810405FEA827CD5
:100BC00024BF51F8043B40F8043B08BF7047D207EC
:100BD00028BF31F8023B48BF11F8012B28BF20F88D
:100BE000023B48BF00F8012B7047000000487047E7
:100BF0005C450120004870473C45012030B5B0F10C
:100C00000A024FEA900E71F100034EEA817EB0EBCA
:100C10000E0061EB91014FEA101E4EEA017E10EBCF
:100C20000E0041EB11114FEA102E4EEA016E10EB4F
:100C30000E0041EB11214FEA104E4EEA014E10EB2F
:100C40000E0041EB1141401841F100014FEAD00084
:100C500040EA41704FEAD10110EB80054FEA810470
:100C600044EA907444EB01046D1944EB0404521BF4
:100C7000A3414FF0000348BF0A3200D530BD401CED
:100C800041F1000130BD00002DE9F0411F4604464E
:100C900003260168072A01F4006004DB08B116A5E9
:100CA00005E016A503E008B115A500E015A521F0A3
:100CB00010002060A069C01EA0610FB1401EA0619D
:100CC0002046AFF300804FB1D4E901213846904768
:100CD000206A401C2062C01C206206E0206AFAE7FD
:100CE000D4E9012115F8010B9047761EF8D2204671
:100CF000AFF30080BDE8F0814E414E006E616E00A2
:100D0000494E4600696E66002DE9F0478146164659
:100D10008AB0354878440DC88DE80D0032487844D3
:100D2000801C03AC0DC884E80D0041F69B300844DC
:100D3000372190FBF1F290FBF1F5A5F1800501FB65
:100D400012041B3C02D56442012000E00020DFF8C1
:100D500098A080460027FA44AAF1BE0A0EE0E007F8
:100D60000AD03246684607EB470101230AEB8101AE
:100D700000F03FFB8DE8070064107F1C002CEED1D3
:100D8000194F7F44AE3F19E0E80715D007EB041078
:100D90000DF1180A90E80E008AE80E00C068F042D3
:100DA00001D1981908903246012306A903A800F042
:100DB00020FB03AB83E807006D10641C002DE3D11A
:100DC0004FF0010332466946B8F1000F03A802D084
:100DD00000F0FAFA01E000F00CFBC9E90001C9F8E3
:100DE00008200AB0BDE8F0878CC8000000487047B2
:100DF0003C4501207546FFF7F9FFAE460500694600
:100E0000534620F00700854618B020B5FFF7A6FA34
:100E1000BDE820404FF000064FF000074FF00008FB
:100E20004FF0000B21F00701AC46ACE8C009ACE87C
:100E3000C009ACE8C009ACE8C0098D46704710B5E0
:100E40000446AFF300802046BDE81040FFF715BA16
:100E50004FF0013C50F8042B51F8043B9A4221D149
:100E6000A2EB0C03934313EACC1317D150F8042BD5
:100E700051F8043B9A4215D1A2EB0C03934313EAB9
:100E8000CC130BD150F8042B51F8043B9A4209D1F2
:100E9000A2EB0C03934313EACC13DBD04FF000001A
:100EA000704700BFD01A01BAB1FA81F101F0180100
:100EB00022FA01F0CB40C1F12001DBB2C0B2C01A6E
:100EC0002CFA01F3D11A914311EAC311E6D170470C
:100ED0005FEA400C08BF91F0000F4FEA8C234FEA05
:100EE000C12243EA51514FEA1C5018BF00F5F040AF
:100EF0004FEA300018BF41F000415FEA6C5C00F03F
:100F00002980BCF1FF3F08BF40F080407047130CC0
:100F100006BF12044FF0100C4FF0000C130E04BF6C
:100F200012020CF1080C130F04BF12010CF1040C97
:100F3000930F04BF92000CF1020CD30F04BF5200B8
:100F40000CF1010C11464FF00002A0F11F00A0EBC4
:100F50000C00704711F0004F08BF704731F000419E
:100F60003FF4D5AF0B0C06BF09044FF0100C4FF047
:100F7000000C0B0E04BF09020CF1080C0B0F04BF90
:100F800009010CF1040C8B0F04BF89000CF1020C59
:100F9000CB0F04BF49000CF1010CCCF12003A0EBF6
:100FA0000C0022FA03F302FA0CF241EA030100F109
:100FB0000100704720F07F4C80EA030023F07F4758
:100FC000ACEB070303F57C5300F0004003F1FF0393
:100FD0002DE980494FEA154B09B44FEA144325EA3D
:100FE0000B4E24EA03480FF2042606EB13274908A8
:100FF0003E785FEA320203FB0667C7F5000707FB8E
:1010000006F64FEA54374FEAD64606F1020607FBCA
:10101000066CCCF1005C4FEA1C472CEA074C07FB3E
:1010200006F40CFB06F504EB15464FEA961634BFA2
:1010300000204FF000404FEAD13706FB07FC4FEA93
:101040001C4C0CFB0BF7D21B03FB0CF761EB0701ED
:101050000CFB0EF7B0EB074072EB17420CFB08F7E6
:1010600034BFA2EB0742B2EB074261EB17414FEAF4
:101070000C444FEA910706FB07FC4FEA1C4C0CFBA3
:101080000BF7B0EBC74072EB573203FB0CF734BFE2
:10109000A2EBC742B2EBC74261EB57310CFB0EF734
:1010A000B0EBC70072EB57720CFB08F734BFA2EB32
:1010B000C702B2EBC70261EB5771039F4FEA816130
:1010C00041EA921104EBCC044FEAD1374FEA826235
:1010D00006FB07FC42EA90124FEA80604FEA1C4C84
:1010E0000CFB0BF7D21B03FB0CF761EB07010CFBAE
:1010F0000EF7B0EB074072EB17420CFB08F734BF5A
:10110000A2EB0742B2EB074261EB17414FEA8C5565
:101110004FEA910704EB9C2406FB07FC4FEA1C4CAA
:101120000CFB0BF7B0EBC74072EB573203FB0CF72D
:1011300034BFA2EBC742B2EBC74261EB57310CFBA5
:101140000EF7B0EBC70072EB57720CFB08F734BF19
:10115000A2EBC702B2EBC70261EB577115EB4C254E
:101160004FEA816141EA92114FEA82624FEAD13738
:1011700042EA901206FB07FC44F100044FEA80604B
:101180004FEA1C4C0CFB0BF7D21B03FB0CF761EB7B
:1011900007010CFB0EF7B0EB074072EB17420CFB9C
:1011A00008F734BFA2EB0742B2EB074261EB1741ED
:1011B00015EB1C154FEA813141EA92414FEA823228
:1011C00042EA90424FEA80304FEA0C7644F1000444
:1011D00048EA03434EEA0B484FF0000EB2EB080C0E
:1011E00071EB030724BF624639464EEB0E0E4FF0FB
:1011F000000B0018524149414BEB0B0BB2EB080CB2
:1012000071EB03077BF1000B24BF624639464EEBBE
:101210000E0E4FF0000B0018524149414BEB0B0BE7
:10122000B2EB080C71EB03077BF1000B24BF6246A5
:1012300039464EEB0E0E51EA020718BF46F0010682
:1012400016EB0E7655F1000254F1000103D5BDE80E
:101250008901BDE80088BDE88901BDE80048B619EC
:10126000524141EB0101A3F10103704780807F7E71
:101270007D7C7B7A7978777676757473727171700C
:101280006F6E6E6D6C6C6B6A6A69686867666665BE
:101290006464636362616160605F5F5E5E5D5D5C4C
:1012A0005C5B5B5A5A5959585857575656555555BD
:1012B0005454535352525251515050504F4F4F4E1D
:1012C0004E4D4D4D4C4C4C4B4B4B4A4A4A4949496B
:1012D00048484847474747464646454545444444AD
:1012E000444343434342424242414141002B9C46D6
:1012F00030D477002BD01CB54FEA370703B44FF03A
:1013000010004FF01001BAF1000F06D0BCF1000F31
:10131000DCBF40F0080040F008014FF000000FBCB7
:10132000BDE810400BF1010BBBF1010F08BF5FEAF4
:10133000170722BF12F1010211F101014FF0004124
:1013400043F1000300F0004043EA00007047F9D386
:101350005708D0E746EA064613F1400F4FEA164613
:101360001FDD13F1200FDFBF16430A460021203393
:101370005B42BED0C3F1200746EA064602FA07F7F1
:101380004FEA164646EA0706C3F1200722FA03F29F
:1013900001FA07F721FA03F14FF0000342EA0702CE
:1013A000A7E746EA020646EA06464FEA164646EA36
:1013B0000106BCBF46EA0646360C4FF000034FF06C
:1013C00000024FF0000194E72DE9804C9A469346C5
:1013D00070B491E8380007C831EA400C48BF34EADD
:1013E000430C03D5FFF7E6FDFFF780FFF0BCBDE837
:1013F000008C2DE9804C9A46934670B491E83800F1
:1014000007C810F0804F08BF13F0804F03D100F0E1
:1014100005F8FFF76BFFF0BCBDE8008C20F07F47BC
:1014200080EA030023F07F4C07EB0C03A3F57C5309
:1014300000F00040A3F1FE0392F0000F00F0B38033
:1014400095F0000F00F077802DE901494FEA114037
:101450004FEA144621EA004800FB06FC24EA06474E
:1014600008FB06F607FB08F800FB07F718EB064831
:101470004CEB164C4FEA124B18EB07484FEA154657
:101480004CEB174022EA0B4E0BFB06FC25EA064705
:101490000EFB06F607FB0EFE0BFB07F71EEB064ED8
:1014A0004CEB164C4FF000061EEB074E4CEB174B67
:1014B00018EB0B0840F1000018EB0E0B58EB00087E
:1014C00040F100008F1A4FF000013CBFC943661B7A
:1014D00014BFB5EB040C00213CBFC943F61B4FEA17
:1014E00017444EEA8E0E27EA04454FEA1C4704FBD8
:1014F00007622CEA074C05FB07F70CFB05F604FB1B
:101500000CFC16EB074642EB174216EB0C4642EB7F
:101510001C421BEB060658EB0202414146EA9E06BE
:1015200001D5BDE80189B619524141EB0101A3F192
:101530000103BDE801894FEA14454FEA114724EA47
:10154000054621EA074C05FB07F406FB07F70CFBF1
:1015500006F105FB0CFC11EB074144EB17444FEA85
:10156000124711EB0C4144EB1C4422EA074C05FBEB
:1015700007F206FB07F70CFB06F605FB0CFC16EB67
:10158000074642EB174216EB0C4642EB1C456A1825
:1015900054F1000148BF7047B619524141EB0101B7
:1015A000A3F10103704795F0000F37D04FEA1142C5
:1015B0004FEA144721EA024624EA074C02FB07F1EE
:1015C00006FB07F70CFB06F402FB0CFC14EB0744CC
:1015D00041EB17414FEA154714EB0C4441EB1C411A
:1015E00025EA074C02FB07F506FB07F70CFB06F69E
:1015F00002FB0CFC16EB074645EB174516EB0C46B9
:1016000045EB1C42121951F1000148BF7047B61951
:10161000524141EB0101A3F1010370474FEA144528
:101620004FEA114724EA054621EA074C05FB07F17A
:1016300006FB07F70CFB06F24FF0000605FB0CFC5F
:1016400012EB074241EB174112EB0C4251EB1C41EC
:1016500048BF7047921841EB0101A3F101037047A5
:1016600001460548B0F90800884202DD01F5005046
:1016700070470846FCE700009003002002468A42BB
:1016800002DA02F5005070471046FCE710B5364903
:10169000B1F90210354AB2F90020881A002801DB9E
:1016A000014600E04142B1F57A6F58DD3048B0F9AB
:1016B00000102D4802F06AFD2B49B1F9081088424C
:1016C00026D12B48008800F5805001B2264802F050
:1016D00069FD2548B0F90C002349B1F9081088428A
:1016E00007DA2148808900F5005000B21E49488081
:1016F00003E01D4880891C4948801D48B0F900005E
:1017000000F58050FFF7ACFF00B21A49088021E0D5
:101710001748B0F90010144802F044FD1248B0F91F
:101720000C001149B1F90810884207DA0E48808987
:1017300000F5005000B20C49488003E00A48808957
:10174000094948800A48B0F90000FFF789FF00B254
:101750000849088008480068404207490860024874
:1017600040880249088010BD9003002078000020C6
:101770007C0000207A000020B001002070B50546F2
:101780000C4600260DB1022C00D870BDA11E0648E3
:101790000288284602F068FE0646A01E2E54310A32
:1017A000601E295400BFF0E76400002070B50546B4
:1017B0000C4600260DB1022C00DC70BD601E81B20B
:1017C000FF22284602F06AFE0646601E2E5400BF25
:1017D000F3E7000010B51021014802F03FFE10BDF4
:1017E0000000024010B51021014802F035FE10BD86
:1017F0000000024010B50121014802F02FFE10BD8B
:101800000004024010B50121014802F025FE10BD80
:10181000000402401CB5002000900190FFF7E2FF99
:10182000922000F04BFA06226946122000F027FAB7
:10183000FFF7D0FF9DF80100000200B29DF80010F4
:1018400040EA01045D4804809DF80300000200B2F4
:101850009DF8021040EA0104584844809DF80500B4
:10186000000200B29DF8041040EA0104534884804D
:10187000FFF7C8FF08226946002000F000FAFFF7D2
:10188000B9FF9DF800000F2829D19DF80300000240
:1018900000B29DF8021040EA01044848408B201A2B
:1018A00000B24649C8819DF80500000200B29DF8CB
:1018B000041040EA01044148808B201A00B23F49DD
:1018C00008829DF80700000200B29DF8061040EA69
:1018D00001043A48C08B201A00B238494882FFF709
:1018E00081FFA22000F0EAF902226946222000F0DE
:1018F000C6F9FFF76FFF9DF80000C0009DF80110CA
:1019000040EA6114B4F5806F02DBA4F5006004B214
:101910002A4884810146B1F91200002801DB014602
:1019200000E04142142902DA002024494882244878
:1019300022490A6802604A684260896881601F48DB
:10194000B0F90C0000EE100AF8EEC00AB4EE001A6E
:10195000B3EE070A00EE810A194880ED030A174822
:10196000B0F90E0000EE100AB8EEC00A1548D0ED2E
:10197000000A20EE200A124880ED040A0F48B0F950
:10198000100000EE100AB8EEC00A0E48D0ED000AB2
:1019900020EE200A0A4880ED050A0848B0F9120036
:1019A00000EE100AB8EEC00A0648D0ED000A20EE9C
:1019B000200A034880ED060A1CBD00008E070020A7
:1019C000B0070020180000201CB5002000900190F6
:1019D000002460E0FFF706FF922000F06FF9062276
:1019E0006946122000F04BF9FFF7F4FE9DF8010064
:1019F0009DF8001041EA00204749898A084400B256
:101A0000454988829DF803009DF8021041EA0020B4
:101A10004149C98A084400B23F49C8829DF805007F
:101A20009DF8041041EA00203B49098B084400B2AC
:101A300039490883FFF7E6FE08226946002000F0D6
:101A40001EF9FFF7D7FE9DF803009DF8021041EA4A
:101A500000203149498B084400B22F4948839DF842
:101A600005009DF8041041EA00202B49898B0844A9
:101A700000B2294988839DF807009DF8061041EAC5
:101A800000202549C98B084400B22349C88305209A
:101A900007F0CCFF641CB4F5967F9BDB1E48B0F9C1
:101AA00014004FF4967190FBF1F000B21A4988824D
:101AB0000846B0F916004FF4967190FBF1F000B2B1
:101AC0001549C8820846B0F918004FF4967190FB8A
:101AD000F1F000B2104908830846B0F91A004FF43B
:101AE000967190FBF1F000B20B4948830846B0F9BB
:101AF0001C004FF4967190FBF1F000B20649888308
:101B00000846B0F91E004FF4967190FBF1F000B258
:101B10000149C8831CBD00008E07002000B587B0B6
:101B20000121084604F068FC0121022004F064FC55
:101B30000121080304F090FC8020059002208DF81C
:101B4000180000208DF81A008DF81B0003208DF876
:101B5000190005A93E4802F014FC18200590022047
:101B60008DF8180000208DF81A008DF81B00032056
:101B70008DF8190005A9374802F003FC10200590E4
:101B800001208DF8180000208DF81A0001208DF832
:101B90001B0003208DF8190005A92D4802F0F1FB68
:101BA00010212B4802F05AFC012005908DF81800F6
:101BB00000208DF81A0001208DF81B0003208DF8FD
:101BC000190005A9234802F0DCFB0121214802F09D
:101BD00045FC052207211E4802F01BFC05220321BB
:101BE0001C4802F016FC052204211A4802F011FCE0
:101BF0000121080304F040FC00214FF4805004F060
:101C00003BFC0020ADF800004FF48270ADF80200FC
:101C10003820ADF80C000020ADF804004FF400703F
:101C2000ADF80A000220ADF806000120ADF808006A
:101C30000020ADF80E000A20ADF8100069460648F5
:101C400004F068FE0121044804F04AFE07B000BD1C
:101C500000000240000402400030014010B50024A2
:101C6000FFF75CFF07F02CFC044307F0BDFC0443C6
:101C70000A2007F095FEFFF7A7FE204610BD70B5BD
:101C800006460C46154646F0800000F017F806E0C0
:101C9000552000F013F82070641C681EC5B2002D9A
:101CA000F6D170BD70B504460D4644F0800000F0DA
:101CB00005F8552000F002F8287070BD10B50446F4
:101CC00000BF02210A4804F017FE0028F9D021467F
:101CD000074804F01DFE00BF0121054804F00CFE7A
:101CE0000028F9D0024804F010FEC0B210BD000078
:101CF0000030014070B505460C462846FFF7DEFF70
:101D00002046FFF7DBFF70BD10B503F05FFF03F067
:101D100085FF01F059FF00F0B1F8FFF79FFF4FF486
:101D20007A7005F085FE00F017F801F0DDFC03F095
:101D3000CDFF04F06FFC03F06FF901F09FF904F0A0
:101D40002DFF04F059FD10BD024A1060014A103207
:101D5000116070472C08004000B58BB001210420B1
:101D600004F05AFB0121082004F046FB02220E2158
:101D70001F4802F04EFB4FF48040099002208DF87E
:101D8000280000208DF82A0003208DF8290009A9D9
:101D9000174802F0F6FA5320ADF818000020ADF80D
:101DA0001A0040F2572007900020ADF8200006A945
:101DB000104805F051FF002003906020ADF80400AA
:101DC0000120ADF806000020ADF8100001A9094877
:101DD00005F0E8FE0821074805F034FF0121054819
:101DE00005F054FE0121034805F05FFE0BB000BD75
:101DF000000C0240000800401A48B0F9040042F20A
:101E00001071884204DD18480068401C16490860BB
:101E10001648006801281DDB14480068401C13495F
:101E2000086008460068142804DD002008600E4998
:101E3000086016E00B48B0F9040010F57A6F03DD76
:101E40000B480C4908600CE000200849086006496E
:101E5000086006E0044800680A2802D1012003490E
:101E600008607047F0030020C0020020C402002078
:101E700060F0FFFFB802002000BFFEE710B500F0E1
:101E800003F800F023FB10BD00B58BB00121082042
:101E900004F0B2FA0121480604F0BEFA092200213A
:101EA0003E4802F0B6FA092201213C4802F0B1FA9C
:101EB0000320099002208DF8280003208DF82900C6
:101EC00000208DF82A0009A9344802F05AFA14209B
:101ED0008DF8200002208DF8210000208DF82200CE
:101EE00001208DF8230008A804F0C8F813208DF80D
:101EF000200002208DF8210000208DF82200012012
:101F00008DF8230008A804F0B9F8254800F0FCFC7F
:101F100005A800F034FF0320ADF8140000208DF870
:101F200016008DF8170008208DF8180003208DF892
:101F3000190000208DF81A008DF81B008DF81C0088
:101F40008DF81D008DF81E0001208DF81F0005A9D9
:101F5000134800F012FE0020ADF80400ADF80600B2
:101F6000ADF80800ADF80A00ADF80C008DF80E00D1
:101F70008DF80F0001208DF810008DF8110001A8D8
:101F800000F0DEFC01220221054800F0EDFD0122F7
:101F90001146034800F0E8FD0BB000BD000C024004
:101FA0000064004010B52DED088B86B002216C480E
:101FB00000F04AFD00287DD001AA0021684800F009
:101FC00066FE9DF80C00002875D19DF80D000028D4
:101FD000FAD19DF80E000828F6D132206149086038
:101FE00040F205220198811A904220D009DCA0F22B
:101FF000012068B101280CD002280BD003287CD125
:1020000009E0042918D00C291CD0FB2975D185E0E2
:1020100000BF00BF00BF0199A1F2012101EB410106
:10202000514A02EBC10001A900F046FC8EE001A973
:102030004E4800F041FC89E001A94C48183000F0FE
:102040003BFC83E00DF10F04208800EE100AB8EE8F
:10205000400ADFED470A80EE201A464880ED001A5C
:10206000608800EE100AB8EE400ADFED410A80EE0B
:10207000201A404880ED011AA08800EE100AB8EE40
:10208000400ADFED3B0A80EE201A3A4880ED021A42
:10209000E08800EE100AB8EE400ADFED350A80EE67
:1020A000201A344880ED031A90ED040A10EE101A3D
:1020B000084601E04FE04AE00AF02EFF41EC1B0B1E
:1020C0009FED2D0B53EC102B0AF030FC41EC190B5B
:1020D000284890ED010A10EE101A08460AF01CFF7D
:1020E00041EC1B0B9FED260B53EC102B0AF01EFC52
:1020F00041EC1A0B53EC192B00E026E00AF038F9FA
:1021000041EC180B0AF002F91A49086140F211205B
:1021100048614FF47A701C49086017E00DF10F0018
:1021200007F0BEF9134880ED010A0DF1130007F026
:10213000B7F9104880ED020A4FF440700D4948612C
:102140004FF47A701049086000E000BF00BF022120
:10215000034800F05DFB06B0BDEC088B10BD00002D
:102160000064004040000020D002002090030020C6
:102170000000C84208040020666666666666E63FA0
:10218000333333333333D33F4800002000B585B0B9
:1021900000208DF808008DF8090008208DF80A004D
:1021A000800100901E48C089000A8DF80B001C4871
:1021B000817B8DF80C10C08C010A8DF80D10184829
:1021C00090F826108DF80E10C08F010A8DF80F10B0
:1021D000134890F83E108DF81010B0F85600010A20
:1021E0008DF811100E4890F856108DF8121000203E
:1021F0000C4908700C480068002803DD69460B484C
:1022000000F006FE04E008480068002800DC03E057
:10221000044800780028F6D000BF05B000BD0000DB
:10222000D00200204C00002040000020006400404C
:1022300000B585B000208DF808008DF80900082051
:102240008DF80A0040F2FF2000901748C08C000A69
:102250008DF80B00144890F826108DF80C10002112
:102260008DF80D108DF80E108DF80F108DF81010E0
:102270008DF811108DF8121000200C4908700C48D0
:102280000068002803DD69460A4800F0C1FD04E04B
:1022900007480068002800DC03E0044800780028B4
:1022A000F6D000BF05B000BD900300204C00002018
:1022B000400000200064004000B585B000208DF88B
:1022C00008008DF8090008208DF80A0040F2FF1080
:1022D00000901748C089000A8DF80B001448817BD4
:1022E0008DF80C1000218DF80D108DF80E108DF862
:1022F0000F108DF810108DF811108DF812100020AD
:102300000C4908700C480068002803DD69460B483A
:1023100000F07EFD04E008480068002800DC03E0CF
:10232000044800780028F6D000BF05B000BD0000CA
:10233000900300204C00002040000020006400407A
:1023400010B50121054800F07FFB30B101200449A0
:1023500008700121014800F05BFA10BD00640040E4
:102360004C00002000B585B050484069B0F5047FAE
:1023700025D100208DF808008DF8090008208DF87F
:102380000A004FF4047000904948008B64214843D0
:10239000000A8DF80B004648007E4843C1B28DF814
:1023A0000C1000218DF80D108DF80E108DF80F1007
:1023B0008DF810108DF811108DF812105EE03C4869
:1023C000008B3C2818D006DC2D2809D032280BD0F1
:1023D00037281DD10CE0502812D0642818D113E002
:1023E00001203449086017E002203249086013E0F8
:1023F0000320304908600FE004202E4908600BE0FC
:1024000005202C49086007E006202A49086003E0FF
:1024100001202849086000BF00BF00208DF8080097
:102420008DF8090008208DF80A0040F2274000903E
:10243000214800788DF80B001E4801788DF80C10AB
:102440001B48008B00EE100AF8EE400A1B4840685B
:1024500000EE100A30EEC00ABCEEC00A10EE100A00
:10246000C1B28DF80D1000218DF80E108DF80F10EF
:102470008DF810108DF811108DF8121000201049F1
:10248000087010480068002803DD69460E4800F017
:10249000BFFC04E00B480068002800DC03E00848AB
:1024A00000780028F6D000BF05B000BD0804002069
:1024B000B41700205400002050000020CF17002047
:1024C0004C000020400000200064004000B58BB0AC
:1024D0000121022003F090FF0121480603F09CFF38
:1024E0000121880603F098FF092205213F4801F0E9
:1024F00090FF092206213D4801F08BFF60200990E2
:1025000002208DF8280003208DF8290000208DF886
:102510002A0009A9354801F034FF40208DF8200039
:1025200002208DF8210000208DF8220001208DF876
:10253000230008A803F0A2FD3F208DF82000022010
:102540008DF8210000208DF8220001208DF8230055
:1025500008A803F093FD264800F0D6F905A800F07E
:102560000EFC0320ADF8140000208DF816008DF845
:10257000170008208DF8180003208DF8190000209E
:102580008DF81A008DF81B008DF81C008DF81D00C9
:102590008DF81E0001208DF81F0005A9144800F0D9
:1025A000ECFA0020ADF80400ADF80600ADF8080024
:1025B000ADF80A00ADF80C000E208DF80E000020DA
:1025C0008DF80F0001208DF810008DF8110001A882
:1025D00000F0B6F901220221054800F0C5FA0122F7
:1025E0001146034800F0C0FA0BB000BD00040240E1
:1025F0000068004000B585B00221264800F024FAAA
:10260000002845D06A460021224800F040FB9DF892
:102610000800B0BB9DF8090098BB9DF80A00082887
:1026200032D132201C4908600098A0F2022007280D
:1026300028D2DFE800F0040C111718191A006946B7
:10264000164800F039F9154800F0AAFB1BE069466E
:10265000134800F031F916E069461148183000F0CF
:102660002BF910E000BF00BF00BF0099A1F20521C7
:1026700001EB41010B4A02EBC100694600F01CF975
:1026800001E001E000BF00BF0221024800F0C0F8F5
:1026900005B000BD0068004044000020F0030020A9
:1026A000C00300203003002010B50121054800F0D0
:1026B000CBF930B10120044908700121014800F034
:1026C000A7F810BD006800404D00002000B585B09F
:1026D00000208DF808008DF8090008208DF80A0008
:1026E00040F2FF1000901E48C089000A8DF80B00D0
:1026F0001B48817B8DF80C10C08C010A8DF80D10E1
:10270000174890F826108DF80E10C08F010A8DF82A
:102710000F10134890F83E108DF81010B0F85600C6
:10272000010A8DF811100E4890F856108DF812100D
:1027300000200C4908700C480068002803DD694639
:102740000A4800F065FB04E007480068002800DC48
:1027500003E0044800780028F6D000BF05B000BDB3
:10276000300300204D00002044000020006800409D
:1027700000B585B000208DF808008DF8090008200C
:102780008DF80A008001009000208DF80B000021D8
:102790008DF80C101948C089010A8DF80D101748E2
:1027A000817B8DF80E101648C089010A8DF80F1034
:1027B0001348817B8DF81010C08C010A8DF8111020
:1027C0000F4890F826108DF8121000200D4908705F
:1027D0000D480068002803DD69460C4800F018FB2E
:1027E00004E009480068002800DC03E005480078A0
:1027F0000028F6D000BF05B000BD0000F0030020A7
:10280000C00300204D00002044000020006800406C
:10281000B1F5007F3AD00FDC202928D006DC012951
:102820001CD004291DD0082940D11DE0402921D009
:10283000B1F5807F3AD126E0B1F5004F31D006DC0A
:10284000B1F5806F25D0B1F5006F2FD124E0B1F53F
:10285000803F12D0B1F5003F28D111E0154A8260C7
:1028600025E00822C26022E01022C2601FE0082298
:1028700002611CE01022026119E00822426016E0A9
:102880001022426013E00422426010E00422426001
:102890000DE0042242600AE00022826104224260CC
:1028A00005E0002282610422426000E000BF00BF18
:1028B00070470000010101000A7BCB7A42EA032243
:1028C00012B282818B7B4A7B43EA022212B20280DF
:1028D0000B7CCA7B43EA022212B282804A7CC2800D
:1028E000028972B1B0F90C20B0F908309A4205DAC9
:1028F000828902F5005212B2428004E0828942804D
:1029000001E082894280704710B504460B4884423A
:1029100009D10121480603F08FFD00214FF000701E
:1029200003F08AFD08E00121880603F085FD0021FF
:102930004FF0806003F080FD10BD00000064004097
:1029400010B50021837A012202FA03F13D4A126890
:1029500042F001023B4B1A603A4A1C3212688A4329
:10296000384B1C331A60027BCAB9364A0C321268E3
:102970008A43344B0C331A604288C38842EA0343CB
:10298000304A4032847A42F834300288838842EAFE
:1029900003432C4A4032847A02EBC4025360027B28
:1029A000012A19D1274A0C3212680A43254B0C33ED
:1029B0001A604288038842EA0343224A4032847AFA
:1029C00042F83430C288838842EA03431D4A4032C9
:1029D000847A02EBC4025360C27A3AB9194A121DD2
:1029E00012688A43174B1B1D1A6006E0154A121D18
:1029F00012680A43134B1B1D1A60028932B9114A2F
:102A0000143212688A430F4B14331A600289012A68
:102A100006D10C4A143212680A430A4B14331A6066
:102A2000427B012A06D1074A1C3212680A43054B31
:102A30001C331A60034A126822F00102014B1A602B
:102A400010BD00000066004070B504460D4600262B
:102A500060692840002871D0B5F5807F5CD010DC1B
:102A6000082D35D006DC012D20D0022D24D0042DD8
:102A700072D127E0102D31D0202D35D0402D6BD1D3
:102A800038E0B5F5004F60D009DCB5F5007F49D0DE
:102A9000B5F5806F4CD0B5F5006F5DD14FE0B5F561
:102AA000803F2DD0B5F5003F56D12FE0A0682D49CD
:102AB00000F010FE064651E0E068032100F00AFE37
:102AC00006464BE0E068082100F004FE064645E0BB
:102AD000E068102100F0FEFD06463FE0206903217A
:102AE00000F0F8FD064639E02069082100F0F2FD0B
:102AF000064633E02069102100F0ECFD06462DE08B
:102B00006068082100F0E6FD064627E060681021B5
:102B100000F0E0FD064621E0A069012100F0DAFDA9
:102B200006461BE0A069022100F0D4FD064615E030
:102B3000A069042100F0CEFD06460FE00FE0A06979
:102B4000702100F0C7FD064608E06068042100F02F
:102B5000C1FD064602E0FFE7002600BF00E00026B8
:102B6000304670BD010101001AB143690B43436156
:102B700002E043698B434361704730B50246002051
:102B80000023146824F002041460146844F0010463
:102B9000146000E05B1C546804F001041CB94FF69B
:102BA000FF74A342F6D1546804F001040CB900206C
:102BB0006CE08C79012C04D1146844F0800414601A
:102BC00003E0146824F080041460CC79012C04D153
:102BD000146844F04004146003E0146824F04004D6
:102BE00014600C7A012C04D1146844F020041460A1
:102BF00003E0146824F0200414604C7A012C04D102
:102C0000146844F01004146003E0146824F0100405
:102C100014608C7A012C04D1146844F00804146008
:102C200003E0146824F008041460CC7A012C04D169
:102C3000146844F00404146003E0146824F00404ED
:102C400014608C78A407CD7844EA05640D7944EAD1
:102C500005444D7944EA05540D886D1E2C43D4611A
:102C6000146824F001041460002300E05B1C546825
:102C700004F001041CB14FF6FF74A342F6D154686E
:102C800004F001040CB1002000E0012030BD10B5BB
:102C900000F5D87303EB01131B6803F004031372F0
:102CA000137A53B900F5D87303EB01131B6840F294
:102CB000FF7404EA5353136009E000F5D87303EB83
:102CC00001131B686FF0604404EAD303536000F5FE
:102CD000D87303EB01131B6803F00203537200F572
:102CE000D87303EB01135B6803F00F03937200F5D5
:102CF000D87303EB01135B681B0AD37400F5D87318
:102D000003EB01139B68D37200F5D87303EB011337
:102D10009B681C0A147300F5D87303EB01139B68BE
:102D20001C0C547300F5D87303EB01139B681B0E46
:102D3000937300F5D87303EB0113DB68D37300F5CD
:102D4000D87303EB0113DB681C0A147400F5D87305
:102D500003EB0113DB681C0C547400F5D87303EB10
:102D60000113DB681B0E937421B9C36843F0200381
:102D7000C36003E0036943F02003036110BD002139
:102D80008171C171017241728172C1728170C170B1
:102D9000032101710221417101210180704700006E
:102DA0001849096831B9B0F90210174A11600121B8
:102DB000144A1160B0F90210B0F91220891AB1F565
:102DC000805F05DB11490968491E104A11600CE05B
:102DD000B0F90210B0F91220891A11F5805F04DCF5
:102DE0000A490968491C094A1160B0F902200749DB
:102DF000096802EB4131044A1268891A416141882D
:102E00004182704758000020600000205C000020D4
:102E100010B502460020936803F08063B3F1806F21
:102E200000D110E0936803F00063B3F1006F01D1AB
:102E3000012008E0936803F08053B3F1805F01D173
:102E4000022000E00420042874D002F5C07303EBD4
:102E500000131B6803F0010402F5C07303EB0013B9
:102E60001C600B7A7BB94B7A0C8843EA445302F519
:102E7000C07404EB00142468234302F5C07404EB0F
:102E80000014236010E00B7A4C6843EAC4034C7AC8
:102E9000234302F5C07404EB00142468234302F5B5
:102EA000C07404EB001423608B7A03F00F038B7261
:102EB00002F5C07303EB00135B6823F00F0402F507
:102EC000C07303EB00135C6002F5C07303EB0013E7
:102ED0005B688C7A234302F5C07404EB00146360D2
:102EE0008B7B1C064B7B44EA03440B7B44EA0323A5
:102EF000CC7A234302F5C07404EB0014A3608B7CEE
:102F00001C064B7C44EA03440B7C44EA0323CC7B41
:102F1000234302F5C07404EB0014E36002F5C073B0
:102F200003EB00131B6843F0010402F5C07303EBCD
:102F300000131C6010BD000010B52DED088B0020A3
:102F40003F4908603F4890ED000A3F48D0ED000A35
:102F500030EE200A3D4880ED000A3A4890ED010A23
:102F60003948D0ED010A30EE200A384880ED010AD8
:102F70003749B1F90210374AB2F90020881A09F02E
:102F80006EFC41EC1B0B9FED340B53EC102B09F046
:102F9000A3FA41EC1A0B9FED320B53EC102B09F006
:102FA000C5FC41EC190B09F0B1F908EE100ADFED90
:102FB0002E0AB0EE480A2D4803F0A6F8234880ED0B
:102FC000020AFEF763FB2148D0ED000A284890ED85
:102FD000000AB8EEC00A20EE800A1C4880ED000A04
:102FE000D0ED010A224890ED000AB8EEC00A20EEAA
:102FF000800A164880ED010A90ED020A10EE101AC0
:10300000084609F089FF41EC190BB0EE490AF0EED1
:10301000690A05F05DFDB0EE408AF0EE608A9FED32
:10302000150B53EC102B51EC180B09F043FC04D298
:103030009FED0D0A054880ED020ABDEC088B10BD1E
:10304000B401002024450120304501201045012015
:10305000900300207A000020000000000000C04023
:103060000000000000807640000000000C0D0020F1
:10307000B0010020000000000000694010B50024ED
:1030800023E004EB8401204A02EB011003F04CF929
:1030900004EB84011C4A02EB01100021DFED1B4A06
:1030A0009FED1B4AF7EE003A9FED1A3ADFED182A22
:1030B0009FED192ADFED171A9FED141ADFED170A9D
:1030C000B1EE0C0A03F080F9641C042CD9DB14481F
:1030D00003F02AF90221DFED0D4A9FED0E4AF7EECB
:1030E000003A9FED103ADFED0B2A9FED0F2ADFED3E
:1030F000091A9FED0E1ADFED050A9FED0C0A08482C
:1031000003F062F910BD00000C0800200000000070
:1031100000409C4500007A460000FA43CDCCCC3DEF
:103120000C0D002000C0DA45000048420000C842F3
:10313000124800893C281FDA00201BE00F4909894A
:1031400000EE101AB8EE400A9FED0D1AC0EE010A0B
:103150000C4931F9101000EE101AB8EEC00A20EE3A
:10316000800ABDEEC00A10EE101A0AB2054921F815
:103170001020401C0428E1DB70470000CF1700201E
:10318000000070421C45012010B52DED0C8B41F262
:103190008830834908608349B1F90210824AB2F944
:1031A0000020881A09F05BFB41EC190B9FED7F0BA7
:1031B00053EC102B09F090F941EC180B9FED7D0BAF
:1031C00053EC102B09F0B2FB7C4A03C29FED7C0B41
:1031D00053EC102B794890ED000B51EC100B09F0DB
:1031E00069FB0CD89FED730B53EC102B734890EDDB
:1031F000000B51EC100B09F0BBF8704A03C29FEDB5
:10320000720B53EC102B6D4890ED000B51EC100B32
:1032100009F08CFB41EC1D0BB0EE4D0AF0EE6D0A8F
:1032200005F0F2FBB0EE40BAF0EE60BA684890EDFF
:10323000000A6848D0ED000A30EE200A10EE101A9D
:10324000084609F069FE41EC1C0B53EC1B2B09F0FE
:103250006DFB41EC190B9FED5C0B53EC102B5748A9
:1032600090ED000B51EC100B09F060FB41EC1D0BD5
:10327000B0EE4D0AF0EE6D0A05F036FCB0EE40BA45
:10328000F0EE60BA524890ED010A5248D0ED010AC2
:1032900030EE200A10EE101A084609F03DFE41EC0F
:1032A0001C0B53EC1B2B09F041FB41EC1A0B53ECAC
:1032B000192B09F05DF841EC180B09F027F8464985
:1032C00008609FED410B53EC102B3C4890ED000B38
:1032D00051EC100B09F02AFB41EC1D0BB0EE4D0A2E
:1032E000F0EE6D0A05F000FCB0EE40BAF0EE60BA08
:1032F000374890ED000A3748D0ED000A30EE200A3A
:1033000010EE101A084609F007FE41EC1C0B53ECB6
:103310001B2B09F00BFB41EC180B9FED2B0B53EC17
:10332000102B264890ED000B51EC100B09F0FEFA23
:1033300041EC1D0BB0EE4D0AF0EE6D0A05F064FB9A
:10334000B0EE40BAF0EE60BA214890ED010A214893
:10335000D0ED010A30EE200A10EE101A084609F0EE
:10336000DBFD41EC1C0B53EC1B2B09F0DFFA41ECAD
:103370001A0B53EC182B09F0E5FC41EC190B08F083
:10338000C5FF15494860064890ED000AB8EEC00A2E
:10339000084680ED020AFEF779F9BDEC0C8B10BDF2
:1033A000B4010020900300207C00002000000000F9
:1033B0000000C0400000000000807640C0010020F6
:1033C0000000000000000000000000A046DF913F68
:1033D0002445012030450120104501209FED3E2A63
:1033E000F0EE421A30EE202A32EE012ABDEEC22A59
:1033F00012EE100A00B239498881B1EE402A32EE4D
:10340000202A32EE012ABDEEC22A12EE100A01B2C3
:103410003248C181B1EE402A32EE602A32EE012AF2
:10342000BDEEC22A12EE100A01B22C48018230EE23
:10343000602A32EE012ABDEEC22A12EE100A01B253
:1034400026484182002021E0244A0C3232F9101033
:10345000002901DB0A4600E04A4202EE102AB8EEDB
:10346000C22AB4EEE12AF1EE10FA0EDD1B4A0C324C
:1034700032F91010002901DB0A4600E04A4202EE50
:10348000102AB8EEC22AF0EE421A401C0428DBDBF8
:103490009FED132AF4EEC21AF1EE10FA1BDD0020A4
:1034A00017E09FED0F2AC2EE212A0C490C3131F9A9
:1034B000101002EE101AB8EEC22A22EE822ABDEED9
:1034C000C22A12EE101A0AB204490C3121F8102057
:1034D000401C0428E5DB7047000000001045012077
:1034E00000D004460020084908609FED080A0848FB
:1034F00080ED000A9FED050A80ED010A9FED030AA9
:1035000080ED020A70470000B401002000000000B6
:103510001045012010B52DED088B6148B0F9080069
:1035200010F5167F0CDD5E4890F8380000F01000B2
:1035300030B900205B49087001205B49086009E050
:103540005948006818B101205649087002E000206F
:1035500054490870554890ED040A10EE101A0846B8
:1035600009F0DAFC41EC180B9FED510B53EC102BDA
:1035700009F0A0F904D200204B49086049490870BD
:1035800048480078002866D1484890ED000A10EEBF
:10359000101A084609F0C0FC41EC1B0B9FED460BCE
:1035A00053EC102B09F0CEFB41EC190B3F4890ED8A
:1035B000040A10EE101A084609F0AEFC41EC1B0B91
:1035C0009FED3D0B53EC102B09F0BCFB41EC1A0BAB
:1035D00053EC192B08F080FF41EC180B08F096FE15
:1035E000374908600846006809F096FC41EC180B62
:1035F0009FED340B53EC102B09F096FA05D8B7EE7B
:10360000000A2F4880ED000A0BE02D4890ED000ADB
:10361000B5EEC00AF1EE10FA03D29FED2C0A80ED50
:10362000000A002014E02A4931F9101000EE101AA7
:10363000B8EEC00A2249D1ED000A20EE200ABDEE04
:10364000C00A10EE101A0AB2214921F81020401CBD
:103650000428E8DB21E01348007801281DD1B7EEEB
:10366000000A174880ED000A002014E0184931F9DB
:10367000101000EE101AB8EEC00A1149D1ED000A80
:1036800020EE200ABDEEC00A10EE101A0AB2104950
:1036900021F81020401C0428E8DBBDEC088B10BD8D
:1036A00026070020BC010020A801002008040020FB
:1036B0000000000000003040000000000000244036
:1036C000B8010020000000000000F03F00000000F2
:1036D0001C4501200246002002EA01030BB1012033
:1036E00000E000207047000010B500F007F840F639
:1036F00034000149486310BD0000014000B58BB0A3
:103700000121084602F0A8FE0121102002F074FEFB
:1037100001220921224800F07CFE4FF4007009903C
:1037200002208DF8280000208DF82A0003208DF853
:10373000290009A91A4800F024FEA720ADF81800B6
:103740000020ADF81A0044F61F6007900020ADF885
:10375000200006A9134804F07FFA4FF4FA600390A2
:103760006020ADF804000120ADF806000020ADF89F
:10377000100001A90B4804F0CDF90821094804F014
:1037800007FA0121074804F081F90121054804F0F6
:1037900098F90121034804F088F90BB000BD00003E
:1037A000001002400000014010B50949094800F02E
:1037B00023F9012807D10021064800F03FF8C8216D
:1037C000044800F095F90249024800F01DF810BDC8
:1037D00000802020A064024010B50949094800F08B
:1037E0000BF9012807D10021064800F027F80A212B
:1037F000044800F07DF90249024800F005F810BDC8
:1038000000800028B86402400246094B9A4201D267
:10381000084801E00648103801F000531BB1064B80
:103820000B40C36002E0044B0B4083607047000014
:1038300010640240006002407D0F7D0F21B10268DC
:1038400042F00102026003E0026822F0010202601D
:1038500070470000016821F0010101600021016052
:1038600041608160C1600161212141614A49884212
:1038700004D13D21484A103A91608CE04649183104
:10388000884205D14FF47461434A103A916082E056
:1038900041493031884205D14FF474113E4A103A03
:1038A000916078E03C494831884205D14FF074611D
:1038B000394A103A91606EE037496031884204D14C
:1038C0003649354A103AD16065E03349783188424B
:1038D00004D13349304A103AD1605CE02E4990312E
:1038E000884204D12F492C4A103AD16053E02A492A
:1038F000A831884205D14FF03D51274A103AD16096
:1039000049E02949884204D13D21274A083A1160FB
:1039100041E025491831884205D14FF47461224AAB
:10392000083A116037E020493031884205D14FF420
:1039300074111D4A083A11602DE01B494831884234
:1039400005D14FF07461184A083A116023E0164916
:103950006031884204D11149134A121F11601AE0E4
:1039600011497831884204D10D490F4A121F116064
:1039700011E00D499031884204D10A490A4A121FC8
:10398000116008E00849A831884204D14FF03D5148
:10399000054A121F11607047106002403D00002070
:1039A000400F002000003D201064024021B1026859
:1039B00042F48022026003E0026822F48022026066
:1039C000704722B1036843F40023036003E00368F7
:1039D00023F400230360016170470146486880B208
:1039E0007047014600200A6802F400220AB1012053
:1039F00000E000207047000070B50246002000245F
:103A00000025124EB24201D2114B01E00F4B103B88
:103A1000104E0E4036B11E2606EAD124166806EA7C
:103A2000040502E0566906F0800501F000560EB16B
:103A30005C6800E01C68084E344004EA010616B1D8
:103A40000DB1012000E0002070BD000010640240B4
:103A5000006002403C0F3C0F7D0F7D0F10B501F060
:103A600080034BB122B1436943F08003436103E01B
:103A7000436923F08003436180290BD02AB1036896
:103A800001F01E042343036004E0036801F01E04F8
:103A9000A343036010BD000010B500220268134B61
:103AA0001A40CC680B6823434C6923438C69234339
:103AB000CC6923430C6A23434C6A23438C6A234317
:103AC0004C6B23438C6B23431A430260426922F000
:103AD0000702D1E90B3423431A4342610B69436067
:103AE0004B6883608B68C36010BD00003F801CF092
:103AF000416070476421324A11600178427841EA9E
:103B00000221C1F30A01A1F580612E4A118041789A
:103B1000C910827841EA4211C1F30A01A1F580611E
:103B2000284A518081788911C27841EA820102795C
:103B300041EA8221C1F30A01A1F58061214A918005
:103B400001794910427941EAC211C1F30A01A1F594
:103B500080611C4AD180017C427C41EA0221C1F390
:103B60000A01A1F58061174A11814179091189087B
:103B700091724179C1F30111D1728179C27941EA1F
:103B8000022109B20F4A9181017A427A41EA022167
:103B90000AB20C494A83817AC27A41EA02210AB206
:103BA00008490A85027B81F83620427B81F837205C
:103BB000817BC27B41EA022202490A8770470000EA
:103BC000740000202607002010B500F04DF800F02A
:103BD00099F800F001F810BD00B58FB0012148053B
:103BE00002F00AFC1D48FFF735FE4FF00060009020
:103BF0001B4801901B480290002003901220049063
:103C0000002005904FF480600690002007900890F7
:103C10004FF4807009904FF440300A9000200B90D0
:103C20000C900D900E9069460C48FFF735FF00226E
:103C30000C4912310948FFF7C4FE01210748FFF77C
:103C4000B5FE01210548FFF7F9FD01224021044896
:103C5000001F04F090F90FB000BD00002860024082
:103C6000044800400207002000B587B0012104206D
:103C700002F0C2FB0121880402F0CEFB07220B21D7
:103C80001D4800F0C6FB4FF40060059002208DF83F
:103C9000180003208DF8190000208DF81A0001206B
:103CA0008DF81B0005A9144800F06BFB1348019028
:103CB0000020ADF80800ADF80A004FF48060ADF8C0
:103CC0000C000020ADF810000420ADF80E0001A992
:103CD0000B4804F0B5F91021094804F037F9012226
:103CE00040F22441064804F086F90121044804F01A
:103CF00036F907B000BD000000080240A0860100B0
:103D00000048004008B527208DF8000001208DF8FC
:103D1000010000208DF8020001208DF803006846A4
:103D200002F0ACF908BD70472DE9F04F0C4609AD23
:103D300095E8E010DDE90D894FF4887AA0F800A03D
:103D4000DFF8D4A0BAF800A0A0F802A0DFF8CCA059
:103D5000BAF800A0A0F804A0002106E014F801B011
:103D600000F1060A0AF801B0491C032904DA14F824
:103D700001A0BAF1000FF1D190F809A02AF0380A99
:103D80000AF1380A80F809A090F809A062F3020A43
:103D900080F809A0B0F809A063F3891A00F1060BB6
:103DA000A0F809A090F80AA065F3850A80F80AA097
:103DB000B0F80DA06CF3090AA0F80DA0B0F80EA0A1
:103DC00068F38C0AA0F80EA0B0F80FA069F34F1AA0
:103DD000A0F80FA0B0F80AA067F38E1AA0F80AA006
:103DE0004FF01E0BB0F80BA06BF3CF1A00F1060BCF
:103DF000A0F80BA04FF0000A08E096F800E000F1F0
:103E0000150B0BF80AE0761C0AF1010ABAF11E0F35
:103E1000F3DBBDE8F08F0000680000206C0000209C
:103E20002DE9F0470C4608AD95E8E010DDF830804C
:103E300040F20119A0F80090DFF8A090B9F80090C6
:103E4000A0F80290DFF89890B9F80090A0F80490DC
:103E5000002106E014F801A000F1060909F801A00C
:103E6000491C032904DA14F80190B9F1000FF1D1CB
:103E700090F8099029F0380909F1100980F80990A3
:103E800090F8099062F3020980F80990B0F809905F
:103E900063F3891900F1060AA0F8099090F80A90D6
:103EA00065F3850980F80A90B0F80D9066F309096A
:103EB000A0F80D90B0F80E9067F38C09A0F80E9062
:103EC000B0F80F906CF34F19A0F80F90B0F8119064
:103ED00068F30909A0F81190BDE8F0876800002098
:103EE0006C0000202DE9F04F0C4609AD95E8E0107C
:103EF000DDE90D8940F2011AA0F800A0DFF8B4A0B6
:103F0000BAF800A0A0F802A0DFF8ACA0BAF800A0B0
:103F1000A0F804A0002106E014F801B000F1060AA0
:103F20000AF801B0491C032904DA14F801A0BAF117
:103F3000000FF1D190F809A02AF0380A0AF1280AF6
:103F400080F809A090F809A062F3020A80F809A09D
:103F5000B0F809A063F3891A00F1060BA0F809A0D4
:103F600090F80AA065F3850A80F80AA0B0F80DA0C1
:103F70006CF3090AA0F80DA0B0F80EA068F38C0A43
:103F8000A0F80EA0B0F80FA069F34F1AA0F80FA088
:103F9000B0F80AA067F38E1AA0F80AA0B0F80BA038
:103FA00066F3CF1AA0F80BA010EE10AAC0F811A06B
:103FB000BDE8F08F680000206C0000202DE9F04F74
:103FC0000C46DDE90DC8DDE90A960C9F099D40F21B
:103FD000011AA0F800A0DFF8A8A0BAF800A0A0F885
:103FE00002A0DFF8A0A0BAF800A0A0F804A0002169
:103FF00006E014F801B000F1060A0AF801B0491C05
:10400000032904DA14F801A0BAF1000FF1D190F8F5
:1040100009A02AF0380A0AF1300A80F809A090F8BD
:1040200009A062F3020A80F809A0B0F809A063F3BE
:10403000891A00F1060BA0F809A090F80AA065F310
:10404000850A80F80AA0B0F80DA067F3090AA0F865
:104050000DA0B0F80EA06CF38C0AA0F80EA0B0F87A
:104060000FA068F34F1AA0F80FA0B0F80AA066F3EB
:104070008E1AA0F80AA0C0F81190BDE8F08F0000D9
:10408000680000206C0000202DE9F04F0C4609ADBF
:1040900095E8E010DDE90D8940F2011AA0F800A0D2
:1040A000DFF8A8A0BAF800A0A0F802A0DFF8A0A04E
:1040B000BAF800A0A0F804A0002106E014F801B0AE
:1040C00000F1060A0AF801B0491C032904DA14F8C1
:1040D00001A0BAF1000FF1D190F809A02AF0380B35
:1040E00080F809B090F809A062F3020A80F809A0EC
:1040F000B0F809A063F3891A00F1060BA0F809A033
:1041000090F80AA065F3850A80F80AA0B0F80DA01F
:1041100066F3090AA0F80DA0B0F80EA067F38C0AA8
:10412000A0F80EA0B0F80FA06CF34F1AA0F80FA0E3
:10413000B0F812A068F38C0AA0F812A0B0F813A08F
:1041400069F34F1AA0F813A0BDE8F08F68000020B3
:104150006C00002010B54FF4807000F00BF84FF4A5
:10416000807000F001F810BD014908607047000040
:10417000143C014001460020034A12680A400AB17B
:10418000012000E000207047143C0140024601F588
:104190008050B0F5005F02DBA1F58050704701F55B
:1041A0008050FBE770B504460D4605F58050B0F52C
:1041B000005F04DBA5F5805000B2208103E005F527
:1041C000805000B22081B4F908102846FDF756FA55
:1041D00000B2608170BD000030B10749096841F448
:1041E0008061054A116005E00349096821F4806196
:1041F000014A116070470000003C024070B504465F
:104200000A460026092502B909E0012A01D1160251
:1042100005E0022A01D1160201E04FF4407600F0D9
:104220009FF80546092D28D11548006820F44070F4
:104230001349086008460068304308600846006873
:1042400020F0F80008600846006844F002010843C6
:104250000B4908600846006840F48030086000F0B0
:104260007FF805460648006820F00200044908600F
:104270000846006820F0F8000860284670BD00007D
:10428000103C024009201349096801F48031B1F55E
:10429000803F01D101201CE00E49096801F01001A6
:1042A00009B1062015E00B49096801F4807109B1D4
:1042B00002200EE00749096801F0EF0109B107206B
:1042C00007E00449096801F0020109B1082000E093
:1042D000092070470C3C02400348006840F0004051
:1042E0000149086070470000103C024030B50246AA
:1042F0000C46092500F034F80546092D19D10E4861
:10430000006820F440700C4908600846006840F4DA
:10431000007008600846006840F001000860146002
:1043200000F01EF805460448006820F0010002492C
:104330000860284630BD0000103C02400548006877
:1043400000F0004028B1044802490C3908600348D5
:1043500008607047103C024023016745AB89EFCDF0
:1043600008B509200090FFF78DFF009002E0FFF7ED
:1043700089FF00909DF800000128F8D09DF800000A
:1043800008BDF0B50A4600210023002400BF3DE02F
:10439000012505FA01F3156805EA03049C4234D1AE
:1043A00005684F000326BE40B543056015794E00F1
:1043B000B5400668354305601579012D02D01579A1
:1043C000022D16D185684F000326BE40B543856097
:1043D00055794E00B54086683543856045680126AD
:1043E0008E40B5434560456896798E40B6B23543F8
:1043F0004560C5684F000326BE40B543C560D5790A
:104400004E00B540C6683543C560491C1029BFD36E
:10441000F0BDF0B5002300244D07ED0E02FA05F3C0
:10442000CE1000F1200555F826504E07F70E0F2646
:10443000BE40B543CF1000F1200646F82750CE10FD
:1044400000F1200555F8265045EA0304CE1000F18E
:10445000200545F82640F0BD418370470183704731
:1044600042694A404261704730B5034613B94FF67E
:10447000FF7030BD09E013F8014B82EA0400C0B2BE
:10448000054D35F8100080EA2222081EA1F1010135
:10449000F1D11046EDE7000014D1000830B5034615
:1044A00005E013F8010B80EA02040448025D081ECF
:1044B000A1F10105A9B2F4D1104630BD13D0000816
:1044C00010B54F4890F8380000F00100B0B14D48E9
:1044D00006F0E0F94C48D0ED000A9FED4C1A31EEA1
:1044E000601AD0ED000A41EE000A4948C0ED000A0A
:1044F0004FF4FA61474806F0EDF930E0404890F893
:10450000380000F00200B0B13E4806F0C3F93E4862
:10451000D0ED000A9FED401A31EE601AD0ED000A8E
:1045200041EE000A3A48C0ED000A4FF4FA613948FA
:1045300006F0D0F913E0374806F0ACF9F7EE000AC0
:1045400030EEC00A3048D0ED000A20EE200A304894
:1045500080ED000A4FF4FA612A4806F0BBF92848BA
:1045600090F8380000F00400B0B12C4806F092F941
:104570002B48D0ED000A9FED2B1A31EE601AD0EDDA
:10458000000A41EE000A2248C0ED010A4FF4FA6128
:10459000204806F09FF926E0194890F8380000F00E
:1045A0000800B0B11D4806F075F91D48D0ED000AAD
:1045B0009FED1D1A31EE601AD0ED000A41EE000A9F
:1045C0001348C0ED010A4FF4FA61124806F082F96F
:1045D00009E09FED160A0E4880ED010A4FF4FA61DA
:1045E0000E4806F077F90A4890ED000A064880ED7B
:1045F000000A074890ED010A094880ED000A10BD45
:1046000026070020EC010020A00200200080BB450E
:1046100030450120280200200080BBC50002002098
:10462000A402002000409CC500409C450000000002
:104630001F48807A022807D11D48C07A022803D17A
:1046400000201C49087032E01B480068322806DD53
:1046500001201A4908700020174908600AE016482E
:10466000006810F1320F05DA0220144908700020AA
:10467000114908600E48C07A012803D00F4800781D
:10468000022802D102200B4908700948C07A02288A
:1046900003D00A480078012802D10120054908709A
:1046A0000348C07A032802D10020024908707047ED
:1046B00026070020A40100208002002084020020A0
:1046C0001B48B0F9020000EE100AB8EEC00ADFED98
:1046D000190A80EE201A9FED180A21EE000A1748E9
:1046E00080ED000A1248B0F9000000EE100AB8EEA2
:1046F000C00ADFED100A80EE201A9FED110A21EEAC
:10470000000A0E4880ED010A0948B0F9040000EEE5
:10471000100AF8EEC00A9FED071A80EE810ADFED5D
:10472000090A20EE200A054880ED020A70470000C1
:10473000260700200000254400409C452445012018
:1047400000803B450080BB4423480068322807DDD9
:1047500040F29C402149486300201F4908600BE05B
:104760001D48006810F1320F06DA40F634001B498C
:1047700048630020184908601948B0F90800B0F5EE
:10478000167F02DD012017490860164800680128DD
:1047900021D11348B0F9080064281CDA1048B0F998
:1047A0000800002817DD0D48406B40F29C4188420C
:1047B00004D140F634000949486309E00748406BDA
:1047C00040F63401884203D140F29C4003494863DB
:1047D0000020044908607047780200200000014072
:1047E00026070020880200201248807A022807D17C
:1047F0001048C07A022803D100200F49087018E041
:104800000C48C07A012802D102200B4908700948DF
:10481000C07A032803D0074890F8370018B1032066
:104820000549087005E00348C07A022801D1024911
:104830000870704726070020CC0100203048008F08
:1048400000F4805058B12E4890F8380000F0200055
:1048500028B12C480068401E2A4908600DE028480D
:10486000008F00F4805028B126480068401C25497C
:10487000086002E00020234908602148008F00F40E
:10488000804058B11E4890F8380000F0200028B150
:104890001D480068401E1C49086010E01848008F41
:1048A00000F4804040B100201849087016480068A4
:1048B000401C1549086002E00020134908601048B8
:1048C000008F00F4005058B10D4890F8380000F007
:1048D000200028B10E480068401E0D4908600DE018
:1048E0000748008F00F4005028B109480068401CB8
:1048F0000749086002E00020054908607047000091
:1049000026070020780200207C0200207000002092
:10491000800200203448807A022807D13248C07AC9
:10492000022803D10020314908705BE0304800685C
:10493000322806DD01202D49087000202C4908602E
:1049400009E02B48006810F1320F04DA00202749F3
:1049500008702749086027480068032811D12248B9
:10496000807A01280DD121480078012803D1002048
:104970001E49087005E01D48007810B901201B4948
:1049800008701948807A1B49086018480078012887
:1049900028D11548807A022803D0134890F83600B1
:1049A00028B115480068401C1349086002E0002047
:1049B000114908601048006801280CD10F4908709F
:1049C0000F4840690F49096808440F4908600120F1
:1049D0000E49086006E008480068642802DD0220ED
:1049E000064908707047000026070020AC0200202E
:1049F0007C020020900200208C020020AD020020EA
:104A0000F00300209C020020980200209402002065
:104A100010B55D48807A022878D15B48C07A0228B8
:104A2000FAD15948B0F9000010F5167F6EDA5648F1
:104A3000B0F9020010F5167FF8DA5348B0F9040017
:104A4000B0F5167F62DD5048B0F9060010F5167F0C
:104A5000ECDA64214FF47A70FDF776F94FF4FA70CE
:104A600004F09EFF6421C800FDF76EF94FF4FA7060
:104A700004F096FF00214FF44870FDF765F96421BA
:104A80004FF47A70FDF760F94FF4FA7004F088FF84
:104A90006421C800FDF758F94FF4FA7004F080FF64
:104AA00000214FF44870FDF74FF904E03748B0F9A2
:104AB0000C00374908603448807A0328F6D1642115
:104AC0004FF47A70FDF740F94FF4FA7004F068FF84
:104AD00000214FF47A70FDF737F904E02B48B0F964
:104AE00024002B4948602848807A0128F6D16421A7
:104AF0004FF47A70FDF728F94FF4FA7004F050FF84
:104B000000214FF47A70FDF71FF905E03BE01F48E4
:104B1000B0F924001E4988601B48C07A0328F6D1EA
:104B200064214FF47A70FDF70FF94FF4FA7004F036
:104B300037FF00214FF47A70FDF706F904E01348BF
:104B4000B0F924001249C8600F48C07A0128F6D194
:104B500064214FF47A70FDF7F7F84FF4FA7004F01F
:104B60001FFF6421C800FDF7EFF84FF4FA7004F05E
:104B700017FF00214FF44870FDF7E6F810220449B2
:104B8000044801F049FF10BD2607002090030020D3
:104B90007007002000F00F0810B51C4800210160CC
:104BA00041608160C16010220146194801F020FF78
:104BB0001648406848BB1548806830BB1348C06839
:104BC00018BB1248006800BB64214FF47A70FDF7EF
:104BD000BBF84FF4FA7004F0E3FE6421C800FDF75F
:104BE000B3F84FF4FA7004F0DBFE64214FF47A70EE
:104BF000FDF7AAF84FF4FA7004F0D2FE00214FF44A
:104C00004870FDF7A1F800BFFEE710BD7007002057
:104C100000F00F0810B56A48B0F9060000EE100A5F
:104C2000B8EEC00A9FED671AC0EE010A6448B0F9F9
:104C30001A0000EE100AB8EEC00AB2EE041AC0EE76
:104C4000011A30EEE10A6048D0ED000A30EE200A89
:104C500080ED000A5D4890ED010AB7EE001AC0EE43
:104C6000010A594890ED000A30EE800A80ED000AF2
:104C700090ED000A5648D0ED000AB4EEE00AF1EEDD
:104C800010FA05DD90ED000A4F4880ED000A0FE0B4
:104C90004D4890ED000A4F48D0ED000AB4EEE00A0E
:104CA000F1EE10FA04D290ED000A474880ED000AB8
:104CB0004948B0F91A0000EE900AF8EEE00AB0EEAA
:104CC000600A4148D0ED000A444801F01DFA43480B
:104CD000503880ED1D0A90ED1D1AF0EE410A404853
:104CE000B0F91000404201EE100AB8EEC11ADFED33
:104CF0003D1A21EE211AB0EE410A3B4801F004FAB8
:104D0000BDEEC00A10EE100A01B23348C184374824
:104D100090ED000A364880ED000A2948B0F90400F9
:104D200000EE100AB8EEC00A9FED321AC0EE010A7A
:104D30002348B0F90C0000EE100AB8EEC00A9FED4F
:104D40002E1AC0EE011A30EEA10A2948D0ED000A51
:104D500030EEC00A80ED000A1C4890ED020A24489B
:104D6000D0ED000A30EE200A80ED000AD0ED000AF6
:104D70001E4890ED000A1948503801F0C5F917484F
:104D8000503880ED090A90ED091AF0EE410A1448F6
:104D9000B0F9120001EE100AB8EEC11ADFED111AD7
:104DA00021EE211AB0EE410A0F48503801F0ACF95B
:104DB000BDEEC00A10EE100A00B20749C88110BD4E
:104DC0002607002000004842D4010020FC070020F4
:104DD000D8010020DC010020900300201C0C0020E2
:104DE0008E070020CDCCCC3DBC0C00200001002063
:104DF000D0010020000016440000C84210B52DED7F
:104E0000048B7548B0F9060000EE100AB8EEC00A2F
:104E10009FED721AC0EE010A6F48B0F91A0000EE59
:104E2000100AB8EEC00AB2EE041AC0EE011A30EE53
:104E3000E10A6B48D0ED000A30EE200A80ED000A4E
:104E400090ED000A6748D0ED000AB4EEE00AF1EEFA
:104E500010FA05DD90ED000A614880ED000A0FE0D0
:104E60005F4890ED000A6048D0ED000AB4EEE00A19
:104E7000F1EE10FA04D290ED000A594880ED000AD4
:104E80005A48B0F91A0000EE900AF8EEE00AB0EEC7
:104E9000600A5348D0ED000A554801F035F95448EE
:104EA000503880ED1D0A90ED1D1AF0EE410A514870
:104EB000B0F91000404201EE100AB8EEC11ADFED61
:104EC0004E1A21EE211AB0EE410A4C4801F01CF9AD
:104ED000BDEEC00A10EE100A01B24448C1843E483B
:104EE000B0F9040000EE100AB8EEC00A9FED441AB3
:104EF000C0EE010A3848B0F90C0000EE100AB8EE16
:104F0000C00A9FED401AC0EE011A30EEA10A3E48D9
:104F1000D0ED000A30EEC00A80ED000A2E4890F86D
:104F2000380000F0400090B13748006807F0F4FF07
:104F300041EC190B9FED350B53EC102B07F018FAD1
:104F400041EC180B07F0E2F92F49086017E02248FE
:104F500090F8380000F0800088B12B48006807F016
:104F6000DBFF41EC190B9FED290B53EC102B07F0E5
:104F7000E9FE41EC180B07F0C9F923490860224803
:104F8000D0ED000A234890ED000A1948503801F08E
:104F9000BBF81748503880ED090A90ED091AF0EE79
:104FA000410A1448B0F9120001EE100AB8EEC11A15
:104FB000DFED111A21EE211AB0EE410A0F485038E8
:104FC00001F0A2F8BDEEC00A10EE100A00B20749C7
:104FD000C881BDEC048B10BD2607002000004842AC
:104FE000D4010020D8010020DC0100209003002023
:104FF0001C0C00208E070020CDCCCC3DBC0C00202A
:10500000000016440000C842D0010020333333337F
:105010003333D33F0001002010B5FFF7F9FC73488C
:1050200001F082F97148503001F07EF9704801F0CA
:105030007BF96F48503001F077F90221DFED6D4ABE
:105040009FED6D4AF7EE003A9FED6C3ADFED6A2A6C
:105050009FED6B2ADFED691A9FED661ADFED650A99
:10506000B3EE090A614801F0AFF90221DFED614AB0
:105070009FED614AF7EE003A9FED5F3ADFED612A5E
:105080009FED612ADFED5C1A9FED5A1ADFED590A98
:105090009FED5E0A564801F097F90221DFED554A6F
:1050A0009FED554AF7EE003A9FED543ADFED522A54
:1050B0009FED502ADFED511A9FED4E1ADFED4D0A9C
:1050C000B0EE000A4948503001F07EF90221DFEDD0
:1050D000494A9FED494AF7EE003A9FED473ADFED26
:1050E000462A9FED4B2ADFED441A9FED421ADFED71
:1050F000410A9FED480A3E48503001F065F9FFF73C
:105100004BFD4548008801B24448FFF74BF8424840
:10511000808801B241481830FFF744F83F4AB2F99D
:1051200020103D4A5068FCF7A9FA00EE100AB8EECC
:10513000C00A3B4880ED000A384AB2F92010364ACE
:105140009068FCF79BFA00EE100AB8EEC00A3548EA
:1051500080ED000A314AB2F920102F4AD068FCF7DE
:105160008DFA00EE100AB8EEC00A2F4880ED000A52
:105170002C4890ED000A2C48D0ED000AB4EEE00A6D
:10518000F1EE10FA13D2274890ED000A264880ED80
:10519000000A224AB2F920101F4AD068FCF76EFAC2
:1051A00000EE100AB8EEC00A1E4880ED000A1B4A45
:1051B000B2F90810184A1068FCF760FA00B21B49EF
:1051C00008801B4908801448008800B219490880EB
:1051D000134890ED000ABDEEC00A10EE100A00B2AE
:1051E000154908800A2004F0DBFB10BDCC0B002021
:1051F0006C0C0020000000000060EA4600401C46E5
:1052000000803B450000484300409C450000B943F6
:1052100000C0DA450000A042700700209003002083
:10522000D4010020D8010020DC0100207A000020F9
:10523000780000207C0000207E0000200020034930
:10524000C88100210148C1847047000090030020FC
:1052500000BFFEE700B52DED108B93B0FE4890ED3A
:10526000000AD0ED000A20EE200A8DED060A90ED2E
:10527000000AFA48D0ED000A20EE200AF0EE40CAFB
:10528000F54890ED000AF648D0ED000A20EE200A1D
:10529000B0EE409AF04890ED000AF248D0ED000AD6
:1052A00020EE200A8DED050AEC4890ED000AD0EDC5
:1052B000000A20EE200AB0EE40DA90ED000AE8483D
:1052C000D0ED000A20EE200A8DED040AE34890EDAF
:1052D000000AE448D0ED000A20EE200AF0EE409AE1
:1052E000DF4890ED000AD0ED000A20EE200AB0EE73
:1052F00040AA90ED000ADB48D0ED000A20EE200A1B
:10530000F0EE40DA90ED000AD0ED000A20EE200A1F
:10531000B0EE40EAD44890ED040AD44880ED000A8B
:10532000D14890ED050AD24880ED000ACE4890EDB4
:10533000060AD04880ED000ACB48B0F9000000EE24
:10534000100AB8EEC00ACC4880ED000AC648B0F991
:10535000020000EE100AB8EEC00AC84880ED000A4C
:10536000C148B0F9040000EE100AB8EEC00AC44803
:1053700080ED000ABC48B0F9060000EE100AB8EE55
:10538000C00AC04880ED000AB748B0F9080000EE36
:10539000100AB8EEC00ABC4880ED000AB248B0F965
:1053A0000A0000EE100AB8EEC00AB84880ED000A04
:1053B000B7480068B749086008460068B6490968F8
:1053C000401A00EE100AB8EE400ADFEDB40A80EE93
:1053D000201AF0EE418AAF480068AF490860A6483D
:1053E000D0ED000A90ED001A60EE810AA34890ED1E
:1053F000001AD0ED001A41EE210AA14890ED001AE2
:10540000D0ED001A41EE210AB0EE600A04F09AFBDA
:10541000B0EE408A984890ED000A20EE080A80ED30
:10542000000A964890ED000A20EE080A80ED000A76
:10543000934890ED000A20EE080A80ED000A9FEDE7
:10544000980A904880ED000A9FED950A8E4880EDFD
:10545000000A9FED930A8D4880ED000A894890ED7F
:10546000000AF0EE000A20EE200AF6EE000A70EEC6
:10547000CA0A70EECE0A20EE200A8348D0ED000A58
:10548000B0EE001A60EE811ADDED040A9DED051AFA
:1054900070EEC10A01EEA00A7C48D0ED000AB0EE21
:1054A000001A60EE810A39EE891A00EE810A8DED4C
:1054B000110A744890ED000AF0EE000A20EE201A5E
:1054C0009DED040ADDED050A30EE200A21EE000A0A
:1054D0006D48D0ED000AB0EE001A60EE810AB6EE1B
:1054E000001A31EE4D1A31EE4E1A00EE810A67486D
:1054F000D0ED000AB0EE001A60EE810A3DEEEC1A23
:1055000000EE810A8DED100A5E4890ED000AF0EE83
:10551000000A20EE200A79EEC90A20EE200A5A4835
:10552000D0ED000AB0EE001A60EE810A3DEEAC1A32
:1055300000EE810A5548D0ED000AB0EE001A60EE88
:10554000810AB6EE001A31EE4D1A31EE4A1A00EE1B
:10555000810AF0EE40AA9DED110A60EE000A9DED71
:10556000100A40EE000A10EE901A084607F0D4FC2C
:10557000CDE900019DED000B03F01AFB8DED020B50
:105580009DED020B51EC100B06F0C0FE0EEE900AE2
:10559000B0EE6AFA39EEC90AF0EE000A20EE200AEF
:1055A0008DED0F0A3CEEAD0AF0EE000A20EE200A67
:1055B0008DED0E0A9DED060A30EE4D0A30EE4A0AD8
:1055C00030EE0E0A8DED0D0AB0EE000A2EEE800AC6
:1055D000F6EE000A70EECA0A70EECE0A20EE200A3D
:1055E000F0EE000A6FEE200A39EEC91A00EE810AC9
:1055F0008DED0C0AB0EE000A2EEE801A9DED040A25
:10560000DDED050A30EE600A21EE000AF0EE000A38
:105610006FEE200A3CEEAD1A00EE810A8DED0B0A0A
:10562000B0EE000A2EEE800A79EE290A20EE200A5A
:10563000F0EE000A6FEE200AB6EE001A31EE4D1AB7
:1056400031EE4A1A00EE810A8DED0A0A0B48D0EDC0
:10565000000A9DED0D0A25E0800000208400002056
:10566000880000208C000020B00700209C00002053
:10567000A0000020A4000020A8000020AC00002012
:10568000B0000020B4000020B8000020BC000020C2
:10569000FC000020C4000020C00000200000FA44EC
:1056A0000000000020EE800AB54890ED001ADDED04
:1056B0000E0A01EE600AB34890ED001ADDED0A0A09
:1056C00021EE201AB048D0ED001ADDED0B0A01EEF4
:1056D000E01A30EE010AF0EE40FAA948D0ED000AD7
:1056E0009DED0F0A60EE800AA84890ED001A9DED2E
:1056F0000D0A41EE400AA44890ED001A9DED0C0AF7
:1057000021EE001AA248D0ED001A9DED0A0A01EE22
:10571000C01A30EE810A8DED090A9C48D0ED000ACE
:105720009DED0E0A20EE800A9A4890ED001ADDEDFC
:105730000F0A01EE600A964890ED001ADDED0B0AA3
:1057400021EE201A8F48D0ED001ADDED0C0A01EE93
:10575000E01A30EE010A8DED080AF5EEC0FAF1EE1E
:1057600010FA63D09DED090AB5EEC00AF1EE10FA09
:105770005CD09DED080AB5EEC00AF1EE10FA55D0E6
:105780009FED850A6FEE800A844890ED000A00EED6
:10579000A80A80ED000A9DED090ADFED7F0A60EEA0
:1057A000200A7F4890ED000A00EEA80A80ED000A6A
:1057B0009DED080ADFED780A60EE200A794890ED49
:1057C000000A00EEA80A80ED000A774890ED000A72
:1057D000F0EE000A00EEAF0A7048D0ED000A30EE9D
:1057E000200A714880ED000A7048D0ED000A9DED56
:1057F000090AB0EE001A41EE000A694890ED000A6D
:1058000030EE800A694880ED000A6948D0ED000A50
:105810009DED080AB0EE001A41EE000A614890EDD5
:10582000000A30EE800A624880ED000A614890ED7F
:10583000000AB1EE400A5C48D0ED000A20EE200AD2
:105840005D48D0ED000A594890ED001A00EEC10AFB
:105850005A4890ED001A5648D0ED001AF0EE400A72
:1058600041EE610A564890ED000A00EEA80A8DED5F
:10587000070A90ED000A4C48D0ED000A20EE200AFD
:105880004D48D0ED000A4A4890ED001A00EE810A1A
:105890004A48D0ED000A454890ED001A00EEC10AD2
:1058A0004448D0ED000AB0EE60BA00EE28BA444891
:1058B00090ED000A3D48D0ED000A20EE200A3D4858
:1058C000D0ED000A3A4890ED001A00EEC10A3B48BC
:1058D000D0ED000A344890ED001A00EE810A3648F7
:1058E000D0ED000AF0EE60BA40EE28BA344890EDF0
:1058F000000A2F48D0ED000A20EE200A2D48D0EDF6
:10590000000A2A4890ED001A00EE810A2A48D0EDDC
:10591000000A254890ED001A00EEC10A2748D0ED94
:10592000000AB0EE60CA00EE28CADDED070A60EE9C
:10593000A00A4BEE0B0A4BEEAB0A4CEE0C0AB0EE93
:10594000600A04F0FFF8B0EE408A9DED070A20EEF1
:10595000080A1B4880ED000A2BEE080A154880ED66
:10596000000A2BEE880A144880ED000A2CEE080A83
:10597000124880ED000A13B0BDEC108B00BD000092
:10598000B0000020B8000020BC000020A8000020CB
:10599000B4000020AC0000200AD7233C9000002077
:1059A00094000020980000209C000020A00000200F
:1059B000A400002084000020880000208C0000202B
:1059C0008000002010B52DED088B794890ED000A7D
:1059D000F8EE000A20EE200AD0ED000A20EE200AA0
:1059E0007448D0ED000AB0EE001A60EE810A90ED26
:1059F000001A00EEC10AF7EE000A30EE200A10EE9F
:105A0000101A084607F088FA41EC1A0B694890ED25
:105A1000000AF0EE000A20EE200A6748D0ED000AE6
:105A200020EE200A6548D0ED000AB0EE001A60EEC4
:105A3000810A5F4890ED001A00EE810A10EE101AFC
:105A4000084607F069FA41EC1B0BB0EE4A1AF0EE7B
:105A50006A1AB0EE4B0AF0EE6B0A02F0D5FEB0EE19
:105A6000409AF0EE609A9FED560B53EC102B51ECE0
:105A7000190B06F05BFF41EC180B06F047FC52498E
:105A800088624B4890ED000AF8EE000A20EE200AEA
:105A90004948D0ED000A20EE200A4848D0ED000A1F
:105AA000B0EE001A60EE810A424890ED001A00EE56
:105AB000810A10EE101A084607F02EFA41EC1A0B74
:105AC000B0EE4A0AF0EE6A0A02F082FBB0EE409AAB
:105AD000F0EE609A9FED3A0B53EC102B51EC190B42
